{
  "_format": "hh-sol-artifact-1",
  "contractName": "Tweets",
  "sourceName": "contracts/Tweets.sol",
  "abi": [
    {
      "inputs": [],
      "name": "getTweet",
      "outputs": [
        {
          "internalType": "string",
          "name": "",
          "type": "string"
        }
      ],
      "stateMutability": "view",
      "type": "function"
    },
    {
      "inputs": [
        {
          "internalType": "string",
          "name": "_tweet",
          "type": "string"
        }
      ],
      "name": "setTweet",
      "outputs": [],
      "stateMutability": "nonpayable",
      "type": "function"
    },
    {
      "inputs": [],
      "name": "tweet",
      "outputs": [
        {
          "internalType": "string",
          "name": "",
          "type": "string"
        }
      ],
      "stateMutability": "view",
      "type": "function"
    }
  ],
  "bytecode": "0x608060405234801561001057600080fd5b50610515806100206000396000f3fe608060405234801561001057600080fd5b50600436106100415760003560e01c80633a756bd614610046578063590b515114610064578063d46f5fd814610080575b600080fd5b61004e61009e565b60405161005b919061035d565b60405180910390f35b61007e600480360381019061007991906102e3565b610130565b005b61008861014a565b604051610095919061035d565b60405180910390f35b6060600080546100ad9061043e565b80601f01602080910402602001604051908101604052809291908181526020018280546100d99061043e565b80156101265780601f106100fb57610100808354040283529160200191610126565b820191906000526020600020905b81548152906001019060200180831161010957829003601f168201915b5050505050905090565b80600090805190602001906101469291906101d8565b5050565b600080546101579061043e565b80601f01602080910402602001604051908101604052809291908181526020018280546101839061043e565b80156101d05780601f106101a5576101008083540402835291602001916101d0565b820191906000526020600020905b8154815290600101906020018083116101b357829003601f168201915b505050505081565b8280546101e49061043e565b90600052602060002090601f016020900481019282610206576000855561024d565b82601f1061021f57805160ff191683800117855561024d565b8280016001018555821561024d579182015b8281111561024c578251825591602001919060010190610231565b5b50905061025a919061025e565b5090565b5b8082111561027757600081600090555060010161025f565b5090565b600061028e610289846103b0565b61037f565b9050828152602081018484840111156102a657600080fd5b6102b18482856103fc565b509392505050565b600082601f8301126102ca57600080fd5b81356102da84826020860161027b565b91505092915050565b6000602082840312156102f557600080fd5b600082013567ffffffffffffffff81111561030f57600080fd5b61031b848285016102b9565b91505092915050565b600061032f826103e0565b61033981856103eb565b935061034981856020860161040b565b610352816104ce565b840191505092915050565b600060208201905081810360008301526103778184610324565b905092915050565b6000604051905081810181811067ffffffffffffffff821117156103a6576103a561049f565b5b8060405250919050565b600067ffffffffffffffff8211156103cb576103ca61049f565b5b601f19601f8301169050602081019050919050565b600081519050919050565b600082825260208201905092915050565b82818337600083830152505050565b60005b8381101561042957808201518184015260208101905061040e565b83811115610438576000848401525b50505050565b6000600282049050600182168061045657607f821691505b6020821081141561046a57610469610470565b5b50919050565b7f4e487b7100000000000000000000000000000000000000000000000000000000600052602260045260246000fd5b7f4e487b7100000000000000000000000000000000000000000000000000000000600052604160045260246000fd5b6000601f19601f830116905091905056fea2646970667358221220e812f7de9080a08f68a95e6a062feb1c0acc04b16d6a01f6ad3e54214b14f80c64736f6c63430008000033",
  "linkReferences": {},
  "deployedLinkReferences": {}
}